:100000000C94CE000C94F6000C94F6000C94F600C0
:100010000C94F6000C94F6000C94F6000C94F60088
:100020000C94F6000C94F6000C94EA040C94590518
:100030000C94F6000C94F6000C94F6000C94F60068
:100040000C94F6000C94F6000C94F6000C94F60058
:100050000C94F6000C94F6000C94F6000C94A0049A
:100060000C94F6000C94F6000C94F6000C94F60038
:100070000C94F6000C94F6000C94F6000C94F60028
:100080000C94F6000C94F6000C94F6000C94F60018
:100090000C94F6000C94F6000C94F6000C94F60008
:1000A0000C94F6000C94F6000C94F600080B000279
:1000B0000202000009040000010202000005240001
:1000C0001001052401010104240206052406000193
:1000D0000705810310004009040100020A00000026
:1000E00007050202400000070583024000000403E8
:1000F000090412010002EF0201404F1B06920001A9
:1001000001020301537061726B46756E005370619A
:10011000726B46756E2050726F204D6963726F006E
:1001200000000000240027002A002D0030000000FD
:10013000000200090F0000030401000C0000000091
:1001400000000000000000000000000004080201A0
:100150001040804010204080408008020401804010
:1001600020100201108010204040200000000025D7
:100170000028002B002E00310004040404040304B2
:100180000502020202040302020202060606060635
:100190000604040202020404BE07BC0911241FBEA7
:1001A000CFEFDAE0DEBFCDBF11E0A0E0B1E0E8E5DF
:1001B000F6E102C005900D92AA34B107D9F721E00B
:1001C000AAE4B1E001C01D92AF3DB207E1F710E033
:1001D000CDECD0E004C02197FE010E94E009CC3CA8
:1001E000D107C9F70E945E080C941F0B0C94000005
:1001F000282F30E0F901E25DFE4F9491F901E45BB4
:10020000FE4F849127583E4FF9012491222309F48F
:100210002EC09923E9F091509F30D0F4E92FF0E0FF
:10022000EC5EFE4F0C94E0094001440123013801CB
:100230003C0128012801280147014D0151015501C8
:100240005B0128015F01909180009F77909380006F
:10025000E22FF0E0EE0FFF1FE559FE4FA591B4919C
:100260009FB7F894EC9180958E238C939FBF08954F
:10027000909180009F7DEACF90918000977FE6CF9C
:1002800094B59F7794BDE4CF94B59F7DFBCF9091BB
:1002900090009F7790939000DBCF909190009F7D8E
:1002A000F9CF90919000977FF5CF9091C0009F7704
:1002B0009093C000CDCF9091C0009F7DF9CF9091D9
:1002C000C200977F9093C200C3CFFC018091680168
:1002D000882311F13FB7F89482E08093E9002091E0
:1002E000F200822F90E01816190614F481E090E0D5
:1002F000882339F0289844E6409367014091F10043
:100300004083222339F02091F200211103C02BE613
:100310002093E8003FBF08958FEF9FEF08952FB718
:10032000F89483E08093E9009091E800892F80722F
:1003300095FF04C09091F20080E4891B2FBF0895BF
:1003400080915F0181110DC082E080935B0184E0A8
:1003500080935C0110925E0110925D0181E08093B8
:100360005F018BE591E00895CF93DF9390E0FC016E
:10037000E45BFE4F249187589E4FFC0184918823B3
:10038000D1F090E0880F991FFC01E05EFE4FA5912F
:10039000B491FC01E559FE4FC591D49161110EC095
:1003A0009FB7F8948C91E22FE0958E238C9328814F
:1003B000E223E8839FBFDF91CF9108958FB7F89430
:1003C000EC91E22BEC938FBFF6CF3FB7F89480917E
:1003D000570190915801A0915901B0915A0126B549
:1003E000A89B05C02F3F19F00196A11DB11D3FBF6D
:1003F000BA2FA92F982F8827BC01CD01620F711D3C
:10040000811D911D42E0660F771F881F991F4A9535
:10041000D1F708950F931F93CF93DF93CDB7DEB736
:1004200029970FB6F894DEBF0FBECDBF0E94E5013D
:100430000091D4011091D5012091D6013091D701BE
:10044000601771078207930740F46093D40170939B
:10045000D5018093D6019093D7010091D4011091DA
:10046000D5012091D6013091D701601B710B820B11
:10047000930B6C32714081059105C0F2F894809124
:10048000C9019091CA019A838983E091CE01F091CC
:10049000CF01DF011196808189879091C501E0919C
:1004A000D801F091D9018091DA01992309F445C06E
:1004B0009081982B98879081809589238F838F8155
:1004C0008C8388E08B8358856F8149853B812C81A3
:1004D00089819A81508347FD252F3A952083262FC5
:1004E00039F0441F00C000006083000000C0F2CF5C
:1004F00038E04D9160830000019761F7F093D901D6
:10050000E093D80149873B832C839A83898378942D
:100510000E94E5016093D4017093D5018093D601C8
:100520009093D70129960FB6F894DEBF0FBECDBFCA
:10053000DF91CF911F910F9108959081982B98870B
:100540009081809589238F838F818E8388E08D832E
:1005500058856F8149853D812E8189819A8150839B
:1005600047FD252F00C000C0208300C000C000C090
:1005700000C000C060830000262F3A9541F0441F60
:10058000000000C000C000C000C000C0E8CF38E0DC
:100590004D9100C0608300C0019709F7F093D90125
:1005A000E093D80149873D832E83AFCF8F929F92EE
:1005B000AF92BF92CF92DF92EF92FF924B015C011C
:1005C0000E94E5016B017C010E94E5016C197D0927
:1005D0008E099F09683E734081059105A8F321E0CB
:1005E000821A9108A108B10888EEC80E83E0D81ECF
:1005F000E11CF11C81149104A104B10429F7FF90BE
:10060000EF90DF90CF90BF90AF909F908F90089524
:1006100040914C0150914D0120914A0130914B0184
:1006200042175307B4F49091E8009570E1F390916C
:10063000E80092FD19C08093F10080914C019091E7
:100640004D0101968F739927892B19F48EEF8093B2
:10065000E80080914C0190914D01019690934D01DD
:1006600080934C0181E0089580E00895DF92EF923D
:10067000FF920F931F93CF93DF93D82E8A01EB0144
:100680007B01E40EF51ECE15DF0559F0D7FE12C032
:10069000FE0184910E94080321968111F4CF0FEF8F
:1006A0001FEFC801DF91CF911F910F91FF90EF9045
:1006B000DF9008958881EECF0F931F93CF93DF9340
:1006C0001F92CDB7DEB782E0898342E450E06CEA46
:1006D00070E080E80E9436030E94A001DC011296BF
:1006E0000D911C910115110589F0D801ED91FC9136
:1006F0000280F381E02DBE016F5F7F4FC801099535
:1007000097FD04C0F80100851185ECCF89810F9019
:10071000DF91CF911F910F910895615030F020919A
:10072000F100FC0120830196F8CF289884E680939D
:10073000670108958F929F92AF92BF92CF92DF92FE
:10074000EF92FF920F931F93CF93DF936C017B0186
:100750008A0180910B01882309F45CC080916801B3
:10076000882309F457C08091500180FF05C0809113
:10077000E00082608093E000E801B12C8AEFA82EAF
:1007800093E0892E2AE3922E209711F4BB20D9F111
:100790000E948F0181110AC0AA94AA20D9F161E0B8
:1007A00070E080E090E00E94D602EECF8C171D062C
:1007B00011F00CF08C2F9FB7F8948092E9002091F3
:1007C000E80025FD02C09FBFDFCF282F30E0C21B0D
:1007D000D30BF701815020F041914093F100FACF03
:1007E000E20EF31EBB2021F09092E800B12CEBCF7B
:1007F0008091E80085FDE7CF9092E800BB24B39498
:10080000209709F3F3CF5D9884E680934F0110168B
:1008100011063CF081E090E0F6019383828310E0C2
:1008200000E0C801DF91CF911F910F91FF90EF90F1
:10083000DF90CF90BF90AF909F908F900895CF930F
:10084000DF931F92CDB7DEB76983DC01ED91FC9198
:100850000280F381E02D41E050E0BE016F5F7F4FE9
:1008600009950F90DF91CF91089583E08093E9007F
:100870008091F200882319F08AE38093E8000895BC
:100880000E948F0190E00895CF93DF931F92CDB720
:10089000DEB7FC018485958597FD08C02FEF3FEFFB
:1008A000358724870F90DF91CF910895CE0101966F
:1008B0000E946501019719F4898190E0F3CF8FEFD1
:1008C0009FEFF0CF0F931F93CF93DF931F92CDB77E
:1008D000DEB78C01FC018485958597FF0BC0CE01A6
:1008E00001960E946501019771F4898190E0F801F9
:1008F00095878487F801848595850F90DF91CF9146
:100900001F910F9108958FEF9FEFF1CFFC01848528
:10091000958597FD0BC09FB7F89482E08093E9001E
:100920008091F2009FBF90E0019608959FB7F894E0
:1009300082E08093E9008091F2009FBF90E00895EB
:100940001F920F920FB60F9211242F933F938F9304
:100950009F93AF93BF938091530190915401A091C5
:100960005501B09156013091520123E0230F2D37EC
:1009700058F50196A11DB11D20935201809353019A
:1009800090935401A0935501B09356018091570163
:1009900090915801A0915901B0915A010196A11D61
:1009A000B11D8093570190935801A0935901B093C2
:1009B0005A01BF91AF919F918F913F912F910F90CD
:1009C0000FBE0F901F90189526E8230F0296A11DC9
:1009D000B11DD2CF1F920F920FB60F9211248F9399
:1009E0009F938091E1009091E100937F9093E100CB
:1009F00083FF0FC01092E90091E09093EB001092FA
:100A0000EC0092E39093ED001092680198E09093CF
:100A1000F00082FF22C093E09093E9009091F200F1
:100A2000992319F09AE39093E80090914F0199234C
:100A300041F090914F01915090934F01911101C05D
:100A40005D9A90916701992341F0909167019150CF
:100A500090936701911101C0289A84FF18C080917A
:100A6000E2008E7E81608093E2008091E1008F7EC3
:100A70008093E100809150018E7E806180935001CF
:100A80009F918F910F900FBE0F901F90189580FF30
:100A9000F7CF8091E2008E7E80618093E2008091AA
:100AA000E1008E7E8093E100809150018E7E816016
:100AB000E5CF1F920F920FB60F921124CF92DF92C3
:100AC000EF92FF920F931F932F933F934F935F9358
:100AD0006F937F938F939F93AF93BF93EF93FF9306
:100AE000CF93DF93CDB7DEB76C97DEBFCDBF10924B
:100AF000E9008091E80083FF25C068E0CE014596BB
:100B00000E948D0382EF8093E8008D8987FF39C0B2
:100B10009091E80090FFFCCF982F907609F034C1B7
:100B20009E894F89588D2F89F88C911131C080385A
:100B300061F5809151018093F1001092F1008EEFE8
:100B40008093E8006C960FB6F894DEBF0FBECDBF61
:100B5000DF91CF91FF91EF91BF91AF919F918F91D5
:100B60007F916F915F914F913F912F911F910F91C5
:100B7000FF90EF90DF90CF900F900FBE0F901F90DF
:100B800018959EEF9093E800C7CF1092F100D5CF53
:100B9000913059F48111D3CF4130510581F68091C4
:100BA00051018D7F80935101CACF933049F4811157
:100BB000C6CF4130510519F6809151018260F2CFC4
:100BC000953041F48091E80080FFFCCF20682093AD
:100BD000E300B5CF963009F0A9C00B8D1C8D22E043
:100BE0001092E90010924D0110924C01F2122EC0A9
:100BF00010924B0110924A010E945C031F8299E0FF
:100C00009983FA8291E09E8390EA98879AEF998778
:100C100020914C0130914D01275F3F4F3C832B8346
:100C20008D831092E90010924D0110924C011093A7
:100C30004B0100934A0149E050E0BE016F5F7F4FD6
:100C400080E00E9436030E945C0379CF10934B0131
:100C500000934A010E94A001DC0112960D911C91A3
:100C60000115110509F451C1D801ED91FC910480E1
:100C7000F581E02DBE016B5E7F4FC801099500979D
:100C800009F03EC1F80100851185EACFF3E0FF12BB
:100C90000EC08F89882309F440C0823061F440E897
:100CA00062E18DE091E00E948B07811148CF81E2E3
:100CB0008093EB0047CF813029F440E868E084E07E
:100CC00091E0F1CF833099F70E94A001DC011296E8
:100CD000ED90FC908E010F5F1F4F6801E114F1044D
:100CE00079F0D701ED91FC910680F781E02DB801F4
:100CF000C7010995080F111DF701E084F184EECFBB
:100D0000D8011C92F60101900020E9F73197BF014C
:100D10006C197D0940E0C601C6CF6EEE70E0FB01A4
:100D2000449150E080E80E94360309CF973009F4DF
:100D3000BECF983021F481E08093F10000CF99304C
:100D400009F0FDCE837009F0B2CFE3E1F1E081E07C
:100D500031E096E32191222371F08093E9003093F2
:100D6000EB00DF0111972C912093EC009093ED00A4
:100D70008F5F873079F78EE78093EA001092EA0060
:100D80008F8980936801DBCE8B8D9C8D1092E9005A
:100D900010924D0110924C0190934B0180934A01A7
:100DA000898D811192C08E899D89913A49F4813251
:100DB00009F07DCF47E050E064E071E080E0B3CF20
:100DC000913209F074CF833269F48F89988DB0E045
:100DD000A0E08093000190930101A0930201B093E1
:100DE0000301ADCE803269F48091E80082FFFCCF30
:100DF00067E084E091E00E948D038BEF8093E80030
:100E00009ECE823209F09BCE8F8980930B01EEEF4C
:100E1000FFE7859194918B3F9C4D51F1E0E0F8E024
:100E20008091040190910501A0910601B091070104
:100E3000803B9440A105B105F1F480910B0180FD48
:100E40001AC0EE3F8AE0F80789F587E797E79183B4
:100E500080838091600080934E0188E19BE00FB613
:100E6000F894A895809360000FBE9093600067CEC1
:100E7000EEEFFAE0D5CF808191818737974709F06F
:100E80005ECEA8958091600088618093600080911B
:100E90004E0180936000EE3F2AE0F20789F08091D6
:100EA000FE0A9091FF0A9183808349CE80819181CF
:100EB0008737980751F29093FF0A8093FE0AC5CFB7
:100EC0001092FF0A1092FE0A3ACE0E94A001DC01A5
:100ED00012960D911C910115110509F4E8CED80167
:100EE000ED91FC910190F081E02DBE016B5E7F4F92
:100EF000C8010995811123CEF80100851185EBCF3A
:100F0000181619060CF41BCED2CEF1E0FF12BECE9D
:100F100062EF70E004CFEF92FF920F931F93CF9395
:100F2000DF93F82E192FE62E042F81E0860F880F0D
:100F30000E94080383E00E940803CF2DD12FEC0EFE
:100F4000FD2EF11CCE15DF05B9F007FF13C0FE0121
:100F500084910E940803182F80E00E9408038123D7
:100F600021968111EFCFDF91CF911F910F91FF90CB
:100F7000EF9008958881EDCF81E0F5CF10926C015C
:100F800010926B0188EE93E0A0E0B0E080936D01D9
:100F900090936E01A0936F01B09370018BE391E089
:100FA00090936A01809369018FEF9FEF9093760190
:100FB000809375011092C6011092CD011092D40158
:100FC0001092D5011092D6011092D70181E0809342
:100FD000D3018093D0011092D10192E09093D2017D
:100FE0008093C50182E190E09093CA018093C9018A
:100FF0000E94FA099093CF018093CE01009709F4E3
:1010000054C022E1FC0111922A95E9F786E090E0B4
:101010009093C8018093C70186E090E09093CC0143
:101020008093CB018091C601882339F061E086E08E
:101030000E94B40186E00E94F800EFE7F1E0E4913D
:10104000F0E0EE0FFF1FE559FE4F859194919093CC
:10105000D9018093D801E2E5F1E0E491E093DA016F
:1010600080E090E0AFEFB0E08093B9019093BA01D7
:10107000A093BB01B093BC0180E09FEFA0E0B0E083
:101080008093BD019093BE01A093BF01B093C001B6
:101090008FEF90E0A0E0B0E08093C1019093C20197
:1010A000A093C301B093C40108951092CA01109295
:1010B000C9011092C8011092C701AECFCF93DF9340
:1010C00000D000D000D0CDB7DEB7789484B5826070
:1010D00084BD84B5816084BD85B5826085BD85B5DC
:1010E000816085BD80916E00816080936E0010925A
:1010F00081008091810082608093810080918100D5
:101100008160809381008091800081608093800065
:101110008091910082608093910080919100816024
:1011200080939100809190008160809390008091E5
:10113000C10084608093C1008091C100826080936F
:10114000C1008091C10081608093C1008091C30083
:1011500081608093C3008091C00082608093C00052
:101160008091C20081608093C20080917A00846087
:1011700080937A0080917A00826080937A008091D7
:101180007A00816080937A0080917A0080688093F1
:101190007A001092680110925101109250018091D2
:1011A000D70081608093D70080EA8093D80089B50A
:1011B000806189BD89B5826089BD09B400FEFDCF1B
:1011C00061E070E080E090E00E94D6028091D8005B
:1011D0008F7C80618093D8008091E000807F809335
:1011E000E0008091E1008E7E8093E1008DE08093AD
:1011F000E200559A209A8091CB019091CC0197FD05
:101200009CC061E00E94B4018091CB010E94F80073
:1012100081E08093C6018091CE019091CF01892B0E
:1012200011F00E940A028FEF9FEF90937601809356
:101230007501F12CE12C45E0C42ED12CC701B6017B
:101240000E94CC098C01075E1E4F1E821D82809178
:10125000C7019091C8012D813E812817390708F0F8
:1012600050C0D801EC91B4E0EB9FF0011124E75499
:10127000FE4F80819181A281B3819D014427552732
:1012800029833A834B835C83A980492E5A2E6B2E87
:101290007724B42C782F4091CD01442361F0A49E93
:1012A00090011124A32E449D20011124B52C489FA8
:1012B00090011124732F6091D3012091CE013091C0
:1012C000CF015091D00165133BC08D819E81880F65
:1012D000991F4D815E81840F951F280F391FE09162
:1012E000D001E20FF32FF11DA082E091D101E20FB6
:1012F000F32FF11DB0828091D201280F311DD90149
:101300007C938091CE019091CF01892B11F00E94A6
:101310000A0264E170E080E090E00E94D602ED8174
:10132000FE813196FE83ED830B5F1F4F369709F0E8
:101330008ECFFFEFEF1AFF0A81CF1092C6016BCF5D
:10134000ED81FE81EE0FFF1FEE0FFF1F2E0F3F1FDF
:101350008B2F9927AA27BB27442349F050E0489FA9
:10136000F001499FF00D589FF00D11248F2FF901C6
:10137000E60FF11D8083B3CF8091CE019091CF0114
:101380000E94960A8091CB019091CC0197FD03C0F9
:1013900060E00C94B401089597FB072E16F40094B6
:1013A00007D077FD09D00E94E60907FC05D03EF47E
:1013B000909581959F4F0895709561957F4F089501
:1013C000EE0FFF1F0590F491E02D0994AA1BBB1BA3
:1013D00051E107C0AA1FBB1FA617B70710F0A61B35
:1013E000B70B881F991F5A95A9F780959095BC0156
:1013F000CD0108950F931F93CF93DF938230910512
:1014000010F482E090E0E091DD01F091DE0130E047
:1014100020E0B0E0A0E0309799F42115310509F4FF
:101420004AC0281B390B24303105D8F58A819B81AD
:101430006115710589F1FB0193838283FE0111C05F
:10144000408151810281138148175907E0F0481704
:10145000590799F4109761F012960C93129713960E
:101460001C933296CF01DF91CF911F910F91089578
:101470000093DD011093DE01F4CF2115310551F009
:101480004217530738F0A901DB019A01BD01DF01C2
:10149000F801C1CFEF01F9CF9093DE018093DD0118
:1014A000CDCFFE01E20FF31F8193919322503109BA
:1014B00039832883D7CF2091DB013091DC01232BA6
:1014C00041F420910E0130910F013093DC01209303
:1014D000DB0120910C0130910D012115310541F402
:1014E0002DB73EB74091100150911101241B350BCF
:1014F000E091DB01F091DC01E217F307A0F42E1B71
:101500003F0B2817390778F0AC014E5F5F4F241767
:10151000350748F04E0F5F1F5093DC014093DB010D
:10152000819391939FCFF0E0E0E09CCFCF93DF9346
:101530000097E9F0FC01329713821282A091DD013D
:10154000B091DE01ED0130E020E01097A1F42081A0
:101550003181820F931F2091DB013091DC0128172C
:10156000390709F061C0F093DC01E093DB01DF9102
:10157000CF910895EA01CE17DF07E8F54A815B8134
:101580009E0141155105B1F7E901FB83EA834991B9
:101590005991C40FD51FEC17FD0761F4808191812B
:1015A0000296840F951FE901998388838281938134
:1015B0009B838A83F0E0E0E012968D919C911397D3
:1015C0000097B9F52D913C911197CD010296820FAC
:1015D000931F2091DB013091DC012817390739F680
:1015E000309751F51092DE011092DD01B093DC01CD
:1015F000A093DB01BCCFD383C28340815181840F90
:10160000951FC817D90761F44E5F5F4F8881998194
:10161000480F591F518340838A819B819383828322
:101620002115310509F0B0CFF093DE01E093DD0123
:101630009ECFFD01DC01C0CF13821282D7CF10E014
:10164000CDECD0E004C0FE010E94E0092196CE3C22
:08165000D107C9F7F894FFCFA0
:10165800FFFFFFFF00E10000000000000000DF01C5
:10166800800000C18081000000000100010200012B
:101678000002010001020002000102010200020052
:1016880002010002010201000000001F049A034049
:0A16980004350486044404620400D3
:00000001FF
