:100000000C945E000C9486000C9486000C94860080
:100010000C9486000C9486000C9486000C94860048
:100020000C9486000C9486000C9486000C94860038
:100030000C9486000C9486000C9486000C94860028
:100040000C94FF020C9486000C946F030C944903EB
:100050000C9486000C9486000C9486000C94860008
:100060000C9486000C9486000000000024002700F9
:100070002A0000000008000201000003040700003D
:10008000000000000000010204081020408001026E
:1000900004081020010204081020000000002500C0
:1000A00028002B00040404040404040402020202D5
:1000B0000202030303030303A103AB0511241FBEC4
:1000C000CFEFD8E0DEBFCDBF12E0A0E0B1E0E6EEBA
:1000D000FDE002C005900D92A833B107D9F723E0E7
:1000E000A8E3B2E001C01D92A430B207E1F710E02E
:1000F000CDE5D0E004C02197FE010E94BB05CC35C0
:10010000D107C9F70E9467040C94E6060C9400001E
:1001100090E0FC01EE58FF4F2491FC01EA57FF4F9D
:100120003491FC01EC55FF4FE491EE23B9F022230A
:1001300039F02330F1F098F4213009F1223019F12F
:10014000F0E0EE0FFF1FE656FF4FA591B4918FB779
:10015000F894EC9130953E233C938FBF089527305F
:10016000A9F02830C9F0243059F7809180008F7DA4
:1001700003C0809180008F7780938000E1CF84B5A9
:100180008F7784BDDDCF84B58F7DFBCF8091B000AC
:100190008F778093B000D4CF8091B0008F7DF9CF5E
:1001A000CF93DF9390E0FC01EA57FF4F24918C55E9
:1001B0009F4FFC0184918823D1F090E0880F991F14
:1001C000FC01E859FF4FA591B491FC01E656FF4FA1
:1001D000C591D49161110EC09FB7F8948C91E22F14
:1001E000E0958E238C932881E223E8839FBFDF91E3
:1001F000CF9108958FB7F894EC91E22BEC938FBFD9
:10020000F6CF3FB7F89480913D0290913E02A091C5
:100210003F02B091400226B5A89B05C02F3F19F0C0
:100220000196A11DB11D3FBFBA2FA92F982F882776
:10023000BC01CD01620F711D811D911D42E0660F51
:10024000771F881F991F4A95D1F708950F931F9321
:10025000CF93DF93CDB7DEB729970FB6F894DEBF03
:100260000FBECDBF0E9401010091F9021091FA0268
:100270002091FB023091FC026017710782079307FF
:1002800040F46093F9027093FA028093FB0290931A
:10029000FC020091F9021091FA022091FB023091C8
:1002A000FC02601B710B820B930B6C327140810559
:1002B0009105C0F2F8948091EE029091EF029A833A
:1002C0008983E091F302F091F402DF0111968081BD
:1002D00089879091EA02E091FD02F091FE028091FF
:1002E000FF02992309F445C09081982B988790814B
:1002F000809589238F838F818C8388E08B835885B9
:100300006F8149853B812C8189819A81508347FD8A
:10031000252F3A952083262F39F0441F00C0000076
:100320006083000000C0F2CF38E04D916083000090
:10033000019761F7F093FE02E093FD0249873B834A
:100340002C839A83898378940E9401016093F90237
:100350007093FA028093FB029093FC0229960FB6E9
:10036000F894DEBF0FBECDBFDF91CF911F910F91EB
:1003700008959081982B98879081809589238F8309
:100380008F818E8388E08D8358856F8149853D817B
:100390002E8189819A81508347FD252F00C000C09E
:1003A000208300C000C000C000C000C06083000007
:1003B000262F3A9541F0441F000000C000C000C045
:1003C00000C000C0E8CF38E04D9100C0608300C09D
:1003D000019709F7F093FE02E093FD0249873D8300
:1003E0002E83AFCFAF92BF92CF92DF92EF92FF9268
:1003F0000F931F93CF93DF936C017B018B01040F4D
:10040000151FEB015E01AE18BF08C017D10759F0E8
:100410006991D601ED91FC910190F081E02DC6012A
:100420000995892B79F7C501DF91CF911F910F9124
:10043000FF90EF90DF90CF90BF90AF900895FC01B8
:10044000538D448D252F30E0842F90E0821B930B39
:10045000541710F0CF96089501970895FC01918DDF
:10046000828D981761F0A28DAE0FBF2FB11D5D96E2
:100470008C91928D9F5F9F73928F90E008958FEF84
:100480009FEF0895FC01918D828D981731F0828D38
:10049000E80FF11D858D90E008958FEF9FEF08958F
:1004A000FC01918D228D892F90E0805C9F4F821BF3
:1004B00091098F739927089581E492E00E94500278
:1004C00021E0892B09F420E0822F089580E090E05C
:1004D000892B29F00E945C0281110C940000089580
:1004E000FC01A48DA80FB92FB11DA35ABF4F2C91A9
:1004F000848D90E001968F739927848FA689B789A0
:100500002C93A089B1898C91837080648C93938D96
:10051000848D981306C00288F389E02D80818F7D39
:1005200080830895EF92FF920F931F93CF93DF93F1
:10053000EC0181E0888F9B8D8C8D98131AC0E8891F
:10054000F989808185FF15C09FB7F894EE89FF89EE
:100550006083E889F98980818370806480839FBF8C
:1005600081E090E0DF91CF911F910F91FF90EF908C
:100570000895F62E0B8D10E00F5F1F4F0F7311279C
:10058000E02E8C8D8E110CC00FB607FCFACFE889D7
:10059000F989808185FFF5CFCE010E947002F1CFED
:1005A000EB8DEC0FFD2FF11DE35AFF4FF0829FB74B
:1005B000F8940B8FEA89FB8980818062CFCFCF933B
:1005C000DF93EC01888D8823B9F0AA89BB89E8897B
:1005D000F9898C9185FD03C0808186FD0DC00FB621
:1005E00007FCF7CF8C9185FFF2CF808185FFEDCF9F
:1005F000CE010E947002E9CFDF91CF9108951F9242
:100600000F920FB60F9211242F933F938F939F93C6
:10061000AF93BF938091390290913A02A0913B022F
:10062000B0913C023091380223E0230F2D3758F56A
:100630000196A11DB11D2093380280933902909339
:100640003A02A0933B02B0933C0280913D0290910C
:100650003E02A0913F02B09140020196A11DB11D42
:1006600080933D0290933E02A0933F02B0934002DC
:10067000BF91AF919F918F913F912F910F900FBE9E
:100680000F901F90189526E8230F0296A11DB11D0B
:10069000D2CF1F920F920FB60F9211242F933F9338
:1006A0004F935F936F937F938F939F93AF93BF937A
:1006B000EF93FF9381E492E00E947002FF91EF912B
:1006C000BF91AF919F918F917F916F915F914F916A
:1006D0003F912F910F900FBE0F901F9018951F9272
:1006E0000F920FB60F9211242F938F939F93EF9336
:1006F000FF93E0915102F09152028081E091570204
:10070000F091580282FD1BC0908180915A028F5F48
:100710008F7320915B02821741F0E0915A02F0E062
:10072000EF5BFD4F958F80935A02FF91EF919F9160
:100730008F912F910F900FBE0F901F901895808171
:10074000F4CF109244021092430288EE93E0A0E0AE
:10075000B0E08093450290934602A0934702B09385
:1007600048028AE292E0909342028093410285EC33
:1007700090E090934E0280934D0284EC90E0909331
:10078000500280934F0280EC90E09093520280934D
:10079000510281EC90E0909354028093530282ECDA
:1007A00090E0909356028093550286EC90E09093EF
:1007B00058028093570210925A0210925B021092D4
:1007C0005C0210925D021092EB021092F202109203
:1007D000F9021092FA021092FB021092FC0281E0E0
:1007E0008093F8028093F5021092F60292E09093C3
:1007F000F7028093EA028AE590E09093EF028093FB
:10080000EE020E94C1059093F4028093F3020097D8
:1008100009F454C02AE5FC0111922A95E9F78EE10A
:1008200090E09093ED028093EC0286E090E090934C
:10083000F1028093F0028091EB02882339F061E0AD
:1008400086E00E94D00086E00E948800EAEAF0E09C
:10085000E491F0E0EE0FFF1FE656FF4F8591949173
:100860009093FE028093FD02ECE8F0E0E491E093C7
:10087000FF0280E090E0AAE0B0E08093DE02909377
:10088000DF02A093E002B093E10280E09AE0A0E0F2
:10089000B0E08093E2029093E302A093E402B0936D
:1008A000E5028AE090E0A0E0B0E08093E602909359
:1008B000E702A093E802B093E90208951092EF02D4
:1008C0001092EE021092ED021092EC02AECF7894EC
:1008D00084B5826084BD84B5816084BD85B5826045
:1008E00085BD85B5816085BD80916E0081608093F6
:1008F0006E0010928100809181008260809381005F
:10090000809181008160809381008091800081606E
:10091000809380008091B10084608093B1008091C9
:10092000B00081608093B00080917A0084608093F1
:100930007A0080917A00826080937A0080917A00B8
:10094000816080937A0080917A00806880937A0039
:100950001092C1008091F0029091F10297FDDDC0EC
:1009600061E00E94D0008091F0020E94880081E046
:100970008093EB028091F3029091F402892B11F0A5
:100980000E942601E0915102F091520282E08083A0
:10099000E0914D02F0914E021082E0914F02F091F1
:1009A000500280E1808310925902E0915502F0914B
:1009B000560286E08083E0915302F09154028081D8
:1009C00080618083E0915302F091540280818860BD
:1009D0008083E0915302F09154028081806880838B
:1009E000E0915302F091540280818F7D8083C0E0BA
:1009F00030E020E0EC2FF0E08091EC029091ED02ED
:100A00002817390708F053C0D901D3E0AA0FBB1F3C
:100A1000DA95E1F7AE0FBF1FAA5FBE4FAC9184E03D
:100A2000A89FD0011124A252BD4F8D919D910D9090
:100A3000BC91A02D4D01AA24BB24082DC92EDA2E6D
:100A4000EB2EFF241C2DD82F6091F202662361F05B
:100A5000869E40011124092D6C9D600111241D2DDD
:100A6000689FA0011124D52FD090F8024091F30285
:100A70005091F4027091F502D71252C0C901880F4B
:100A8000991F820F931F480F591FA091F502A40FC1
:100A9000B52FB11D0C93A091F602A40FB52FB11D77
:100AA0001C938091F702480F511DDA01DC932F5FF0
:100AB0003F4F2E31310509F09FCF8091F302909185
:100AC000F402892B11F00E9426010E9401016B01A2
:100AD0007C0188EE882E83E0982EA12CB12C0E94F8
:100AE00001016C197D098E099F09683E73408105DB
:100AF0009105A8F3B1E08B1A9108A108B10828EE7E
:100B0000C20E23E0D21EE11CF11C81149104A10449
:100B1000B10429F7CF5FC7706BCF1092EB022ACFD9
:100B20007901EE0CFF1CEE0CFF1C4E0D5F1D8B2F90
:100B30009927AA27BB27662349F070E0689F7001B8
:100B4000699FF00C789FF00C11248F2DDA01AD0D08
:100B5000B11D8C939ACF8091F3029091F4020E9480
:100B60005D068091F0029091F10297FD03C060E074
:100B70000C94D0000895EE0FFF1F0590F491E02D26
:100B800009940F931F93CF93DF938230910510F454
:100B900082E090E0E0910203F091030330E020E076
:100BA000B0E0A0E0309799F42115310509F44AC06E
:100BB000281B390B24303105D8F58A819B816115BA
:100BC000710589F1FB0193838283FE0111C040818D
:100BD00051810281138148175907E0F048175907DE
:100BE00099F4109761F012960C93129713961C9338
:100BF0003296CF01DF91CF911F910F91089500930D
:100C0000020310930303F4CF2115310551F042176D
:100C1000530738F0A901DB019A01BD01DF01F8019A
:100C2000C1CFEF01F9CF9093030380930203CDCF9F
:100C3000FE01E20FF31F8193919322503109398312
:100C40002883D7CF2091000330910103232B41F457
:100C5000209102013091030130930103209300039E
:100C600020910001309101012115310541F42DB78A
:100C70003EB74091040150910501241B350BE091D2
:100C80000003F0910103E217F307A0F42E1B3F0BC2
:100C90002817390778F0AC014E5F5F4F24173507EE
:100CA00048F04E0F5F1F5093010340930003819360
:100CB00091939FCFF0E0E0E09CCFCF93DF9300973C
:100CC000E9F0FC01329713821282A0910203B091E5
:100CD0000303ED0130E020E01097A1F42081318181
:100CE000820F931F209100033091010328173907C9
:100CF00009F061C0F0930103E0930003DF91CF910D
:100D00000895EA01CE17DF07E8F54A815B819E016D
:100D100041155105B1F7E901FB83EA8349915991E6
:100D2000C40FD51FEC17FD0761F4808191810296F5
:100D3000840F951FE90199838883828193819B8326
:100D40008A83F0E0E0E012968D919C9113970097D2
:100D5000B9F52D913C911197CD010296820F931F09
:100D600020910003309101032817390739F6309795
:100D700051F51092030310920203B0930103A09364
:100D80000003BCCFD383C28340815181840F951F60
:100D9000C817D90761F44E5F5F4F88819981480F6A
:100DA000591F518340838A819B81938382832115BC
:100DB000310509F0B0CFF0930303E09302039ECF17
:100DC000FD01DC01C0CF13821282D7CF10E0CDE548
:100DD000D0E004C0FE010E94BB052196CE35D107AC
:060DE000C9F7F894FFCFF3
:100DE6000000040380000001000100010001000171
:100DF60000010001000200010001000102010001E2
:100E060000010002000200010001000201020001CF
:100E160000010200010200010001020002010001BE
:100E260000010201000200010001020102010001AD
:100E3600000200010002000100020001020100019F
:100E4600000200020002000100020002010200018D
:100E5600000201000102000100020100020100017E
:100E6600000201020002000100020102010200016B
:100E7600020001020002000102000102010200015B
:100E8600020002000201000102000201000200014C
:100E9600020002010201000102010001020100013B
:100EA600020100020002000102010002010200012B
:100EB600020102000201000102010201000200011A
:100EC6000201020102010002000200020002000209
:100ED60000020002010200020002010002010002FB
:100EE60000020102010200020100020102010002E9
:100EF60001020002010200020102010201020102D6
:100F0600010201020102000000009202F2011F022A
:080F1600DF0250022E0242022C
:00000001FF
