:100000000C949F000C94C7000C94C7000C94C7007C
:100010000C94C7000C94C7000C94C7000C94C70044
:100020000C94C7000C94C7000C94C7000C94C70034
:100030000C94C7000C94C7000C94C7000C94C70024
:100040000C94D6020C94C7000C94C7000C94C70003
:100050000C94C7000C94C7000C94C7000C94C70004
:100060000C94C7000C94C70007634236B79BD8A70F
:100070001A39685618AEBAAB558C1D3CB7CC5763CD
:10008000BD6DEDFD753EF6177231BF000000803F7B
:1000900008000000BE922449123EABAAAA2ABECD97
:1000A000CCCC4C3E00000080BEABAAAAAA3E000009
:1000B0000000BF000000803F000000000008417801
:1000C000D3BB4387D1133D190E3CC3BD4282AD2B38
:1000D0003E68EC8276BED98FE1A93E4C80EFFFBE30
:1000E00001C4FF7F3F00000000000000000024006A
:1000F00027002A0000000000250028002B0004042F
:1001000004040404040402020202020203030303BF
:10011000030301020408102040800102040810209B
:100120000102040810200000000800020100000382
:1001300004070000000000000000FF0383041124F6
:100140001FBECFEFD8E0DEBFCDBF21E0A6E0B1E01B
:1001500001C01D92A733B207E1F711E0A0E0B1E0C2
:10016000E0E1F3E102C005900D92A630B107D9F7A6
:1001700010E0CEE9D0E004C02197FE010E945008B3
:10018000CD39D107C9F70E9420030C947B090C9448
:10019000000090E0FC01EA5DFE4F2491FC01EE5E60
:1001A000FE4F3491FC01E250FF4FE491EE23B9F091
:1001B000222339F02330F1F098F4213009F1223074
:1001C00019F1F0E0EE0FFF1FEC50FF4FA591B49135
:1001D0008FB7F894EC9130953E233C938FBF0895F0
:1001E0002730A9F02830C9F0243059F780918000D9
:1001F0008F7D03C0809180008F7780938000E1CF56
:1002000084B58F7784BDDDCF84B58F7DFBCF8091A2
:10021000B0008F778093B000D4CF8091B0008F7DF5
:10022000F9CF8F929F92AF92BF92CF92DF92EF92CF
:10023000FF92CF934B01AA24BB24C82DC52ED62EE6
:10024000E72EFF24BC2DA42F20912501222361F04D
:10025000829E40011124C92D2C9D60011124BD2DC9
:10026000249FF0011124AF2FE0912B01E090260193
:10027000F090270130912801E31323C09C01220F45
:10028000331F820F931F8E0D9F1DE0912801E80FF1
:10029000F92FF11DC083E0912901E80FF92FF11D1D
:1002A000B08320912A01820F911DFC01A083CF9180
:1002B000FF90EF90DF90CF90BF90AF909F908F9086
:1002C0000895880F991F880F991F8E0D9F1D472F26
:1002D000552766277727222349F030E0249F7001B5
:1002E000259FF00C349FF00C11244F2DE80FF92FAF
:1002F000F11D4083CACFCF93DF9390E0FC01EE5E07
:10030000FE4F249182509F4FFC0184918823D1F0AD
:1003100090E0880F991FFC01E651FF4FA591B49121
:10032000FC01EC50FF4FC591D49161110EC09FB7F5
:10033000F8948C91E22FE0958E238C932881E22310
:10034000E8839FBFDF91CF9108958FB7F894EC9128
:10035000E22BEC938FBFF6CF3FB7F8948091190151
:1003600090911A01A0911B01B0911C0126B5A89B88
:1003700005C02F3F19F00196A11DB11D3FBFBA2F37
:10038000A92F982F8827BC01CD01620F711D811DF7
:10039000911D42E0660F771F881F991F4A95D1F77C
:1003A00008950F931F93CF93DF93CDB7DEB72997AF
:1003B0000FB6F894DEBF0FBECDBF8091260190919D
:1003C0002701892B09F47CC00E94AC0100912C010B
:1003D00010912D0120912E0130912F01601771078E
:1003E0008207930740F460932C0170932D01809352
:1003F0002E0190932F0100912C0110912D0120913D
:100400002E0130912F01601B710B820B930B6C320C
:10041000714081059105C0F2F8948091210190917D
:1004200022019A838983E0912601F0912701DF015F
:1004300011968081898790911D01E0913001F091A2
:10044000310180913201992309F445C09081982BA4
:1004500098879081809589238F838F818C8388E012
:100460008B8358856F8149853B812C8189819A8155
:10047000508347FD252F3A952083262F39F0441FBE
:1004800000C000006083000000C0F2CF38E04D9152
:1004900060830000019761F7F0933101E093300130
:1004A00049873B832C839A83898378940E94AC018B
:1004B00060932C0170932D0180932E0190932F0156
:1004C00029960FB6F894DEBF0FBECDBFDF91CF9156
:1004D0001F910F9108959081982B98879081809516
:1004E00089238F838F818E8388E08D8358856F81E8
:1004F00049853D812E8189819A81508347FD252F31
:1005000000C000C0208300C000C000C000C000C008
:1005100060830000262F3A9541F0441F000000C080
:1005200000C000C000C000C0E8CF38E04D9100C05E
:10053000608300C0019709F7F0933101E093300127
:1005400049873D832E83AFCF8F929F92AF92BF9208
:10055000CF92DF92EF92FF924B015C010E94AC01BF
:100560006B017C010E94AC016C197D098E099F0909
:10057000683E734081059105A8F321E0821A910835
:10058000A108B10888EEC80E83E0D81EE11CF11C5A
:1005900081149104A104B10429F7FF90EF90DF903A
:1005A000CF90BF90AF909F908F9008951F920F9221
:1005B0000FB60F9211242F933F938F939F93AF9376
:1005C000BF938091150190911601A0911701B091F0
:1005D00018013091140123E0230F2D3758F50196AF
:1005E000A11DB11D20931401809315019093160154
:1005F000A0931701B09318018091190190911A01ED
:10060000A0911B01B0911C010196A11DB11D809309
:10061000190190931A01A0931B01B0931C01BF9183
:10062000AF919F918F913F912F910F900FBE0F909F
:100630001F90189526E8230F0296A11DB11DD2CF59
:10064000789484B5826084BD84B5816084BD85B5AD
:10065000826085BD85B5816085BD80916E008160B9
:1006600080936E001092810080918100826080935F
:100670008100809181008160809381008091800061
:100680008160809380008091B10084608093B1008C
:100690008091B00081608093B00080917A00846086
:1006A00080937A0080917A00826080937A008091B2
:1006B0007A00816080937A0080917A0080688093CC
:1006C0007A001092C100809123019091240197FD3E
:1006D0002EC061E00E947B01809123010E94C9002D
:1006E00081E080931E010E94D10124E0C22ED12C12
:1006F00033E0A32EB12C40E0842E40E0942E4090B5
:100700001001509011016090120170901301D0E01F
:10071000C0E080911F0190912001C817D90750F4C3
:10072000B301A201CE010E9411012196F2CF1092D5
:100730001E01D9CF0E94D10160ED77E080E090E00A
:100740000E94A402109207011092060198E0E92E7F
:10075000F12CD0E0C0E00091060110910701C80122
:10076000B6010E943C08BC01990F880B990B0E94AE
:10077000CB049B01AC0160E070E080E490E40E9457
:100780002F0520911F0130912001C217D307C8F413
:100790000E949304AB01CE01BA010E942808CB014C
:1007A000B5010E942808FC01EE0FFF1FEE0FFF1F8E
:1007B000E85FFE4F4081518162817381CE010E94CA
:1007C00011012196CE31D10531F60E94D1010F5F82
:1007D0001F4F109307010093060168EE73E080E05D
:1007E00090E00E94A40281E0E81AF10809F0B1CF7C
:1007F0008114910409F483CF0E94000080CF1092ED
:100800001E011092250110922C0110922D011092C0
:100810002E0110922F0181E080932B0180932801FB
:100820001092290192E090932A0180931D018AE59C
:1008300090E090932201809321010E9456089093AA
:10084000270180932601009709F454C02AE5FC0192
:1008500011922A95E9F78EE190E090932001809320
:100860001F0186E090E09093240180932301809102
:100870001E01882339F061E086E00E947B0186E05A
:100880000E94C900E4E0F1E0E491F0E0EE0FFF1F08
:10089000EC50FF4F859194919093310180933001FA
:1008A000E8E1F1E0E491E093320180E090E0A8EC2F
:1008B000B0E08093080190930901A0930A01B093DE
:1008C0000B0180E098ECA0E0B0E080930C019093E5
:1008D0000D01A0930E01B0930F018FEF90E0A0E007
:1008E000B0E08093100190931101A0931201B09396
:1008F00013010895109222011092210110922001FB
:1009000010921F01AECF80912601909127010E9485
:10091000F208809123019091240197FD03C060E0CB
:100920000C947B0108950E949A046894B1110C9470
:10093000290508950E940E0588F09F5798F0B92F59
:100940009927B751B0F0E1F0660F771F881F991F04
:100950001AF0BA95C9F714C0B13091F00E94280579
:10096000B1E008950C942805672F782F8827B85F89
:1009700039F0B93FCCF3869577956795B395D9F75C
:100980003EF490958095709561957F4F8F4F9F4F66
:100990000895E89409C097FB3EF490958095709572
:1009A00061957F4F8F4F9F4F9923A9F0F92F96E9BB
:1009B000BB279395F695879577956795B795F11130
:1009C000F8CFFAF4BB0F11F460FF1BC06F5F7F4FCD
:1009D0008F4F9F4F16C0882311F096E911C07723DF
:1009E00021F09EE8872F762F05C0662371F096E8E8
:1009F000862F70E060E02AF09A95660F771F881FB7
:100A0000DAF7880F9695879597F9089557FD9058CE
:100A1000440F551F59F05F3F71F04795880F97FBC2
:100A2000991F61F09F3F79F087950895121613067C
:100A30001406551FF2CF4695F1DF08C016161706AB
:100A40001806991FF1CF86957105610508940895E0
:100A5000E894BB2766277727CB0197F90895FA0119
:100A6000EE0FFF1F309621053105A1F161157105CB
:100A700061F48038BFE39B0749F1689490388105A1
:100A800061F08038BFEF9B0741F099234AF5FF3FA3
:100A9000E1053105210519F1E8940894E795D9019C
:100AA000AA2329F4AB2FBE2FF85FD0F310C0FF5F4D
:100AB00070F4A695E0F7F73950F019F0FF3A38F4E2
:100AC0009F779F930DD00F9007FC9058089546F0A4
:100AD0000C94BF0560E070E080E89FE308954FE765
:100AE0009F775F934F933F932F930E9433062F91ED
:100AF0003F914F915F910E94AF060C94870529F4B6
:100B000016F00C94B9050C9428050C94BF050E94AE
:100B10000E05A8F39638A0F707F80F92E8942BE398
:100B20003AEA48EB5FE70E94C5060F920F920F92D8
:100B30004DB75EB70F920E947B06E8E6F0E00E9498
:100B4000C2054F915F91EF91FF91E595EE1FFF1F59
:100B500049F0FE57E0684427EE0F441FFA95E1F78D
:100B60004195550B0E94F5050F9007FE0C94E90581
:100B7000089597F99F6780E870E060E008959FEF1F
:100B800080EC0895DF93CF931F930F93FF92EF9222
:100B9000DF927B018C01689406C0DA2EEF010E947F
:100BA000C206FE01E894A591259135914591559194
:100BB000A6F3EF010E943407FE019701A801DA9421
:100BC00069F7DF90EF90FF900F911F91CF91DF9128
:100BD00008959B01AC0160E070E080E89FE30C9415
:100BE00089070C94B9050C94FB070E940E05D8F3F5
:100BF0009923C9F3940F511DA3F39150504094F0E1
:100C000059F0882332F0660F771F881F91505040AB
:100C1000C1F79E3F51052CF7880F911D969587953A
:100C200097F908955F3FACF0983E9CF0BB278695FE
:100C300077956795B79508F4B1609395C1F7BB0FA9
:100C400058F711F460FFE8CF6F5F7F4F8F4F9F4FD2
:100C5000E3CF0C94290516F00C94FB070C94BF0508
:100C600068940C94B9050E940E05A8F39923C1F36A
:100C7000AEF3DF93CF931F930F93FF92C92FDD271E
:100C800088232AF02197660F771F881FDAF720E064
:100C900030E040E85FEB9FE3883920F0803E38F099
:100CA00021968F770E941D07E0E9F0E004C00E94C2
:100CB0001D07EDEBF0E00E94C2058B01BE01EC01C7
:100CC000FB2E6F5771097595771F880B990B0E9442
:100CD000CB0428E132E741E35FE30E94C206AF2D77
:100CE0009801AE01FF900F911F91CF91DF910E946B
:100CF00034070C941708FA01DC01AA0FBB1F9B01F3
:100D0000AC01BF5728F4222733274427507820C04E
:100D1000B75190F4AB2F0024469537952795011CC9
:100D2000A395D2F3002071F0220F331F441FB39517
:100D3000DAF30ED00C941C0761307105A0E88A0725
:100D4000B94630F49B01AC01662777278827907855
:100D5000309621F0208331834283538308950E948B
:100D6000C2060C9417080E94090838F00E94100867
:100D700020F0952311F00C94B9050C94BF051124B3
:100D80000C9429050E94060570F3959FC1F3950FF9
:100D900050E0551F629FF001729FBB27F00DB11DFF
:100DA000639FAA27F00DB11DAA1F649F6627B00D8F
:100DB000A11D661F829F2227B00DA11D621F739F78
:100DC000B00DA11D621F839FA00D611D221F749F86
:100DD0003327A00D611D231F849F600D211D822FCD
:100DE000762F6A2F11249F5750409AF0F1F08823F4
:100DF0004AF0EE0FFF1FBB1F661F771F881F915021
:100E00005040A9F79E3F510580F00C94B9050C9411
:100E100029055F3FE4F3983ED4F38695779567956F
:100E2000B795F795E7959F5FC1F7FE2B880F911D4A
:100E30009695879597F908955058BB27AA270E9441
:100E400034070C9417080E94090838F00E94100813
:100E500020F039F49F3F19F426F40C94BF050EF4EA
:100E6000E095E7FB0C94B905E92F0E94060558F3BD
:100E7000BA17620773078407950720F079F4A6F57F
:100E80000C9428050EF4E0950B2EBA2FA02D0B0123
:100E9000B90190010C01CA01A0011124FF27591BBF
:100EA00099F0593F50F4503E68F11A16F040A22FC5
:100EB000232F342F4427585FF3CF46953795279536
:100EC000A795F0405395C9F77EF41F16BA0B620B35
:100ED000730B840BBAF09150A1F0FF0FBB1F661F7C
:100EE000771F881FC2F70EC0BA0F621F731F841FBF
:100EF00048F4879577956795B795F7959E3F08F0E5
:100F0000B0CF9395880F08F09927EE0F97958795A6
:100F100008950E949D070C9417080E94100858F02D
:100F20000E94090840F029F45F3F29F00C94B905AC
:100F300051110C9429050C94BF050E94060568F315
:100F40009923B1F3552391F3951B550BBB27AA2782
:100F500062177307840738F09F5F5F4F220F331FBC
:100F6000441FAA1FA9F335D00E2E3AF0E0E832D084
:100F700091505040E695001CCAF72BD0FE2F29D087
:100F8000660F771F881FBB1F261737074807AB0759
:100F9000B0E809F0BB0B802DBF01FF2793585F4FCE
:100FA0003AF09E3F510578F00C94B9050C94290550
:100FB0005F3FE4F3983ED4F3869577956795B795B0
:100FC000F7959F5FC9F7880F911D9695879597F9BB
:100FD0000895E1E0660F771F881FBB1F6217730734
:100FE0008407BA0720F0621B730B840BBA0BEE1F49
:100FF00088F7E09508959F3F31F0915020F4879550
:1010000077956795B795880F911D9695879597F970
:10101000089500240A94161617061806090608955E
:1010200000240A9412161306140605060895092EC4
:101030000394000C11F4882352F0BB0F40F4BF2B33
:1010400011F460FF04C06F5F7F4F8F4F9F4F089573
:10105000AA1BBB1B51E107C0AA1FBB1FA617B707DE
:1010600010F0A61BB70B881F991F5A95A9F78095FA
:101070009095BC01CD01089597FB072E16F40094BE
:1010800007D077FD09D00E94280807FC05D03EF460
:10109000909581959F4F0895709561957F4F089524
:1010A000EE0FFF1F0590F491E02D09940F931F930D
:1010B000CF93DF938230910510F482E090E0E091CD
:1010C0003501F091360130E020E0B0E0A0E030974B
:1010D00099F42115310509F44AC0281B390B243035
:1010E0003105D8F58A819B816115710589F1FB0174
:1010F00093838283FE0111C040815181028113815B
:1011000048175907E0F04817590799F4109761F00C
:1011100012960C93129713961C933296CF01DF917F
:10112000CF911F910F9108950093350110933601CF
:10113000F4CF2115310551F04217530738F0A901BA
:10114000DB019A01BD01DF01F801C1CFEF01F9CF49
:101150009093360180933501CDCFFE01E20FF31F4E
:10116000819391932250310939832883D7CF2091DD
:10117000330130913401232B41F42091020130914D
:101180000301309334012093330120910001309109
:1011900001012115310541F42DB73EB740910401FD
:1011A00050910501241B350BE0913301F09134017E
:1011B000E217F307A0F42E1B3F0B2817390778F02E
:1011C000AC014E5F5F4F2417350748F04E0F5F1F8D
:1011D0005093340140933301819391939FCFF0E07A
:1011E000E0E09CCFCF93DF930097E9F0FC013297CA
:1011F00013821282A0913501B0913601ED0130E0E9
:1012000020E01097A1F420813181820F931F20915B
:101210003301309134012817390709F061C0F09388
:101220003401E0933301DF91CF910895EA01CE17A5
:10123000DF07E8F54A815B819E0141155105B1F751
:10124000E901FB83EA8349915991C40FD51FEC173B
:10125000FD0761F4808191810296840F951FE90159
:1012600099838883828193819B838A83F0E0E0E085
:1012700012968D919C9113970097B9F52D913C9101
:101280001197CD010296820F931F20913301309167
:1012900034012817390739F6309751F51092360185
:1012A00010923501B0933401A0933301BCCFD383A6
:1012B000C28340815181840F951FC817D90761F4FB
:1012C0004E5F5F4F88819981480F591F518340833A
:1012D0008A819B81938382832115310509F0B0CFE8
:1012E000F0933601E09335019ECFFD01DC01C0CFC4
:1012F00013821282D7CF10E0CEE9D0E004C0FE0105
:101300000E9450082196CF39D107C9F7F894FFCF32
:061310000000370180001F
:00000001FF
