:100000000C945E000C9486000C9486000C94860080
:100010000C9486000C9486000C9486000C94860048
:100020000C9486000C9486000C9486000C94860038
:100030000C9486000C9486000C9486000C94860028
:100040000C94A5030C9486000C9415040C94EF03F7
:100050000C9486000C9486000C9486000C94860008
:100060000C9486000C9486000000000024002700F9
:100070002A0000000008000201000003040700003D
:10008000000000000000010204081020408001026E
:1000900004081020010204081020000000002500C0
:1000A00028002B00040404040404040402020202D5
:1000B00002020303030303034704F90511241FBECF
:1000C000CFEFD8E0DEBFCDBF11E0A0E0B1E0E2EDC0
:1000D000FEE002C005900D92A831B107D9F721E0EA
:1000E000A8E1B1E001C01D92A63EB207E1F710E021
:1000F000CDE5D0E004C02197FE010E943106CC3549
:10010000D107C9F70E940D050C945C070C94000000
:1001100090E0FC01EE58FF4F2491FC01EA57FF4F9D
:100120003491FC01EC55FF4FE491EE23B9F022230A
:1001300039F02330F1F098F4213009F1223019F12F
:10014000F0E0EE0FFF1FE656FF4FA591B4918FB779
:10015000F894EC9130953E233C938FBF089527305F
:10016000A9F02830C9F0243059F7809180008F7DA4
:1001700003C0809180008F7780938000E1CF84B5A9
:100180008F7784BDDDCF84B58F7DFBCF8091B000AC
:100190008F778093B000D4CF8091B0008F7DF9CF5E
:1001A0008F929F92AF92BF92CF92DF92EF92FF9287
:1001B000CF934B01AA24BB24C82DC52ED62EE72EE3
:1001C000FF24BC2DA42F2091D401222361F0829E14
:1001D00040011124C92D2C9D60011124BD2D249FA7
:1001E000F0011124AF2FE091DA01E090D501F090F9
:1001F000D6013091D701E31323C09C01220F331F96
:10020000820F931F8E0D9F1DE091D701E80FF92FEC
:10021000F11DC083E091D801E80FF92FF11DB083E3
:100220002091D901820F911DFC01A083CF91FF90F5
:10023000EF90DF90CF90BF90AF909F908F900895F8
:10024000880F991F880F991F8E0D9F1D472F5527C7
:1002500066277727222349F030E0249F7001259FED
:10026000F00C349FF00C11244F2DE80FF92FF11DE5
:100270004083CACFCF93DF9390E0FC01EA57FF4F52
:1002800024918C559F4FFC0184918823D1F090E0FC
:10029000880F991FFC01E859FF4FA591B491FC010B
:1002A000E656FF4FC591D49161110EC09FB7F894E7
:1002B0008C91E22FE0958E238C932881E223E883B2
:1002C0009FBFDF91CF9108958FB7F894EC91E22B07
:1002D000EC938FBFF6CF3FB7F89480911F019091B8
:1002E0002001A0912101B091220126B5A89B05C053
:1002F0002F3F19F00196A11DB11D3FBFBA2FA92FA5
:10030000982F8827BC01CD01620F711D811D911DA1
:1003100042E0660F771F881F991F4A95D1F708950D
:100320000F931F93CF93DF93CDB7DEB729970FB607
:10033000F894DEBF0FBECDBF8091D5019091D6015C
:10034000892B09F47CC00E946B010091DB011091A4
:10035000DC012091DD013091DE0160177107820719
:10036000930740F46093DB017093DC018093DD011F
:100370009093DE010091DB011091DC012091DD0101
:100380003091DE01601B710B820B930B6C3271405C
:1003900081059105C0F2F8948091D0019091D1012E
:1003A0009A838983E091D501F091D601DF011196FE
:1003B000808189879091CC01E091DF01F091E0018B
:1003C0008091E101992309F445C09081982B988789
:1003D0009081809589238F838F818C8388E08B83A4
:1003E00058856F8149853B812C8189819A81508311
:1003F00047FD252F3A952083262F39F0441F00C052
:1004000000006083000000C0F2CF38E04D916083AF
:100410000000019761F7F093E001E093DF01498765
:100420003B832C839A83898378940E946B01609329
:10043000DB017093DC018093DD019093DE0129964E
:100440000FB6F894DEBF0FBECDBFDF91CF911F91E5
:100450000F9108959081982B98879081809589239A
:100460008F838F818E8388E08D8358856F81498546
:100470003D812E8189819A81508347FD252F00C0BF
:1004800000C0208300C000C000C000C000C0608366
:100490000000262F3A9541F0441F000000C000C024
:1004A00000C000C000C0E8CF38E04D9100C06083BC
:1004B00000C0019709F7F093E001E093DF0149875D
:1004C0003D832E83AFCF8F929F92AF92BF92CF92F8
:1004D000DF92EF92FF920E946B014B015C0184E678
:1004E000C82ED12CE12CF12C0E946B0168197909DE
:1004F0008A099B09683E734081059105A8F321E0B4
:10050000C21AD108E108F10888EE880E83E0981E2F
:10051000A11CB11CC114D104E104F10429F7FF901E
:10052000EF90DF90CF90BF90AF909F908F90089505
:10053000AF92BF92CF92DF92EF92FF920F931F93F1
:10054000CF93DF936C017B018B01040F151FEB012F
:100550005E01AE18BF08C017D10759F06991D601E6
:10056000ED91FC910190F081E02DC6010995892B58
:1005700079F7C501DF91CF911F910F91FF90EF9017
:10058000DF90CF90BF90AF900895FC01538D448DC4
:10059000252F30E0842F90E0821B930B541710F02E
:1005A000CF96089501970895FC01918D828D98173B
:1005B00061F0A28DAE0FBF2FB11D5D968C91928D13
:1005C0009F5F9F73928F90E008958FEF9FEF089544
:1005D000FC01918D828D981731F0828DE80FF11D0D
:1005E000858D90E008958FEF9FEF0895FC01918D28
:1005F000228D892F90E0805C9F4F821B91098F7321
:100600009927089583E291E00E94F60221E0892B68
:1006100009F420E0822F089580E090E0892B29F0F2
:100620000E94020381110C9400000895FC01A48D26
:10063000A80FB92FB11DA35ABF4F2C91848D90E004
:1006400001968F739927848FA689B7892C93A089E7
:10065000B1898C91837080648C93938D848D981371
:1006600006C00288F389E02D80818F7D8083089504
:10067000EF92FF920F931F93CF93DF93EC0181E0F2
:10068000888F9B8D8C8D98131AC0E889F989808199
:1006900085FF15C09FB7F894EE89FF896083E889CC
:1006A000F98980818370806480839FBF81E090E0BE
:1006B000DF91CF911F910F91FF90EF900895F62E4B
:1006C0000B8D10E00F5F1F4F0F731127E02E8C8DE5
:1006D0008E110CC00FB607FCFACFE889F98980812A
:1006E00085FFF5CFCE010E941603F1CFEB8DEC0F05
:1006F000FD2FF11DE35AFF4FF0829FB7F8940B8F47
:10070000EA89FB8980818062CFCFCF93DF93EC01B0
:10071000888D8823B9F0AA89BB89E889F9898C91E9
:1007200085FD03C0808186FD0DC00FB607FCF7CFA5
:100730008C9185FFF2CF808185FFEDCFCE010E94A5
:100740001603E9CFDF91CF9108951F920F920FB654
:100750000F9211242F933F938F939F93AF93BF9347
:1007600080911B0190911C01A0911D01B0911E016F
:1007700030911A0123E0230F2D3758F50196A11D62
:10078000B11D20931A0180931B0190931C01A0932B
:100790001D01B0931E0180911F0190912001A09135
:1007A0002101B09122010196A11DB11D80931F016D
:1007B00090932001A0932101B0932201BF91AF91AA
:1007C0009F918F913F912F910F900FBE0F901F908F
:1007D000189526E8230F0296A11DB11DD2CF1F92B6
:1007E0000F920FB60F9211242F933F934F935F9365
:1007F0006F937F938F939F93AF93BF93EF93FF93E9
:1008000083E291E00E941603FF91EF91BF91AF91B7
:100810009F918F917F916F915F914F913F912F9118
:100820000F900FBE0F901F9018951F920F920FB64A
:100830000F9211242F938F939F93EF93FF93E09147
:100840003301F09134018081E0913901F0913A0156
:1008500082FD1BC0908180913C018F5F8F7320913E
:100860003D01821741F0E0913C01F0E0ED5DFE4F6B
:10087000958F80933C01FF91EF919F918F912F91E4
:100880000F900FBE0F901F9018958081F4CF10929B
:1008900026011092250188EE93E0A0E0B0E080935D
:1008A000270190932801A0932901B0932A018AE09F
:1008B00091E0909324018093230185EC90E0909344
:1008C000300180932F0184EC90E09093320180936B
:1008D000310180EC90E0909334018093330181ECFE
:1008E00090E0909336018093350182EC90E09093F4
:1008F00038018093370186EC90E090933A01809321
:10090000390110923C0110923D0110923E0110926B
:100910003F011092CD011092D4011092DB01109290
:10092000DC011092DD011092DE0181E08093DA019A
:100930008093D7011092D80192E09093D9018093CF
:10094000CC018AE590E09093D1018093D0010E9480
:1009500037069093D6018093D501009709F454C0CF
:100960002AE5FC0111922A95E9F78EE190E0909337
:10097000CF018093CE0186E090E09093D3018093E5
:10098000D2018091CD01882339F061E086E00E9498
:100990003A0186E00E948800EAEAF0E0E491F0E0A3
:1009A000EE0FFF1FE656FF4F859194919093E00163
:1009B0008093DF01ECE8F0E0E491E093E10180E076
:1009C00090E0A8ECB0E08093C0019093C101A093A7
:1009D000C201B093C30180E098ECA0E0B0E0809346
:1009E000C4019093C501A093C601B093C70188ECE0
:1009F00090E0A0E0B0E08093C8019093C901A0937B
:100A0000CA01B093CB0108951092D1011092D00188
:100A10001092CF011092CE01AECF789484B582604F
:100A200084BD84B5816084BD85B5826085BD85B592
:100A3000816085BD80916E00816080936E00109210
:100A4000810080918100826080938100809181008B
:100A5000816080938100809180008160809380001C
:100A60008091B10084608093B1008091B00081607A
:100A70008093B00080917A00846080937A008091A6
:100A80007A00826080937A0080917A0081608093FE
:100A90007A0080917A00806880937A001092C10079
:100AA0008091D2019091D30197FD85C061E00E94B1
:100AB0003A018091D2010E94880081E08093CD01AB
:100AC0000E949001E0913301F091340182E0808333
:100AD000E0912F01F09130011082E0913101F0910D
:100AE000320180E1808310923B01E0913701F09167
:100AF000380186E08083E0913501F09136018081F4
:100B000080618083E0913501F091360180818860B9
:100B10008083E0913501F091360180818068808387
:100B2000E0913501F091360180818F7D80838EE1E7
:100B3000E82EF12CD0E0C0E08091180190911901CD
:100B4000B7010E9409066C018C018C179D07B1F555
:100B50004091C4015091C5016091C6017091C701D7
:100B60008091CE019091CF01C817D90718F4CE011A
:100B70000E94D0002196CE31D105F1F60E9490015D
:100B80000E946302CD2859F58090C8019090C90158
:100B9000A090CA01B090CB018091CE019091CF017D
:100BA00008171907A0F4B501A401C8010E94D000DC
:100BB0000F5F1F4FF1CF1092CD0182CF4091C00146
:100BC0005091C1016091C2017091C301C9CF0E94CF
:100BD00090010E94630210921901109218018091F5
:100BE00018019091190101969093190180931801B1
:100BF000A1CF8091D5019091D6010E94D30680911A
:100C0000D2019091D30197FD03C060E00C943A01AA
:100C1000089597FB072E16F4009407D077FD09D0AE
:100C20000E941D0607FC05D03EF4909581959F4FCC
:100C30000895709561957F4F0895AA1BBB1B51E1E4
:100C400007C0AA1FBB1FA617B70710F0A61BB70B3C
:100C5000881F991F5A95A9F780959095BC01CD01E1
:100C60000895EE0FFF1F0590F491E02D09940F9366
:100C70001F93CF93DF938230910510F482E090E0D0
:100C8000E091E401F091E50130E020E0B0E0A0E087
:100C9000309799F42115310509F44AC0281B390B06
:100CA00024303105D8F58A819B816115710589F160
:100CB000FB0193838283FE0111C040815181028137
:100CC000138148175907E0F04817590799F410970E
:100CD00061F012960C93129713961C933296CF01E3
:100CE000DF91CF911F910F9108950093E40110932C
:100CF000E501F4CF2115310551F04217530738F0C3
:100D0000A901DB019A01BD01DF01F801C1CFEF01AB
:100D1000F9CF9093E5018093E401CDCFFE01E20F7E
:100D2000F31F819391932250310939832883D7CFC0
:100D30002091E2013091E301232B41F42091020143
:100D4000309103013093E3012093E20120910001EF
:100D5000309101012115310541F42DB73EB7409185
:100D6000040150910501241B350BE091E201F09143
:100D7000E301E217F307A0F42E1B3F0B28173907F6
:100D800078F0AC014E5F5F4F2417350748F04E0FE7
:100D90005F1F5093E3014093E201819391939FCFB2
:100DA000F0E0E0E09CCFCF93DF930097E9F0FC0107
:100DB000329713821282A091E401B091E501ED0116
:100DC00030E020E01097A1F420813181820F931F41
:100DD0002091E2013091E3012817390709F061C041
:100DE000F093E301E093E201DF91CF910895EA01EE
:100DF000CE17DF07E8F54A815B819E014115510559
:100E0000B1F7E901FB83EA8349915991C40FD51FDA
:100E1000EC17FD0761F4808191810296840F951F84
:100E2000E90199838883828193819B838A83F0E09F
:100E3000E0E012968D919C9113970097B9F52D9152
:100E40003C911197CD010296820F931F2091E201F0
:100E50003091E3012817390739F6309751F5109290
:100E6000E5011092E401B093E301A093E201BCCF4D
:100E7000D383C28340815181840F951FC817D9073E
:100E800061F44E5F5F4F88819981480F591F5183EC
:100E900040838A819B81938382832115310509F0E8
:100EA000B0CFF093E501E093E4019ECFFD01DC01BA
:100EB000C0CF13821282D7CF10E0CDE5D0E004C0BE
:100EC000FE010E9431062196CE35D107C9F7F8946C
:020ED000FFCF52
:100ED2000000E60180000000000038039802C5020D
:080EE2008503F602D402E802C8
:00000001FF
