:100000000C949F000C94C7000C94C7000C94C7007C
:100010000C94C7000C94C7000C94C7000C94C70044
:100020000C94C7000C94C7000C94C7000C94C70034
:100030000C94C7000C94C7000C94C7000C94C70024
:100040000C94E3030C94C7000C9453040C942D04FB
:100050000C94C7000C94C7000C94C7000C94C70004
:100060000C94C7000C94C70007634236B79BD8A70F
:100070001A39685618AEBAAB558C1D3CB7CC5763CD
:10008000BD6DEDFD753EF6177231BF000000803F7B
:1000900008000000BE922449123EABAAAA2ABECD97
:1000A000CCCC4C3E00000080BEABAAAAAA3E000009
:1000B0000000BF000000803F000000000008417801
:1000C000D3BB4387D1133D190E3CC3BD4282AD2B38
:1000D0003E68EC8276BED98FE1A93E4C80EFFFBE30
:1000E00001C4FF7F3F00000000000000000024006A
:1000F00027002A0000000008000201000003040796
:1001000000000000000000000102040810204080F0
:100110000102040810200102040810200000000061
:10012000250028002B000404040404040404020233
:10013000020202020303030303038504530611248E
:100140001FBECFEFD8E0DEBFCDBF11E0A0E0B1E031
:10015000E0EBF6E102C005900D92A831B107D9F7A6
:1001600021E0A8E1B1E001C01D92A63EB207E1F78F
:1001700010E0CEE9D0E004C02197FE010E94200AE1
:10018000CD39D107C9F70E944B050C944B0B0C9449
:10019000000090E0FC01EC50FF4F2491FC01E85F6F
:1001A000FE4F3491FC01EA5DFE4FE491EE23B9F07D
:1001B000222339F02330F1F098F4213009F1223074
:1001C00019F1F0E0EE0FFF1FE45EFE4FA591B49130
:1001D0008FB7F894EC9130953E233C938FBF0895F0
:1001E0002730A9F02830C9F0243059F780918000D9
:1001F0008F7D03C0809180008F7780938000E1CF56
:1002000084B58F7784BDDDCF84B58F7DFBCF8091A2
:10021000B0008F778093B000D4CF8091B0008F7DF5
:10022000F9CF8F929F92AF92BF92CF92DF92EF92CF
:10023000FF92CF934B01AA24BB24C82DC52ED62EE6
:10024000E72EFF24BC2DA42F2091D401222361F09E
:10025000829E40011124C92D2C9D60011124BD2DC9
:10026000249FF0011124AF2FE091DA01E090D50135
:10027000F090D6013091D701E31323C09C01220FE7
:10028000331F820F931F8E0D9F1DE091D701E80F42
:10029000F92FF11DC083E091D801E80FF92FF11D6E
:1002A000B0832091D901820F911DFC01A083CF91D1
:1002B000FF90EF90DF90CF90BF90AF909F908F9086
:1002C0000895880F991F880F991F8E0D9F1D472F26
:1002D000552766277727222349F030E0249F7001B5
:1002E000259FF00C349FF00C11244F2DE80FF92FAF
:1002F000F11D4083CACFCF93DF9390E0FC01E85F0C
:10030000FE4F24918A5D9E4FFC0184918823D1F099
:1003100090E0880F991FFC01E651FF4FA591B49121
:10032000FC01E45EFE4FC591D49161110EC09FB7F0
:10033000F8948C91E22FE0958E238C932881E22310
:10034000E8839FBFDF91CF9108958FB7F894EC9128
:10035000E22BEC938FBFF6CF3FB7F89480911F014B
:1003600090912001A0912101B091220126B5A89B76
:1003700005C02F3F19F00196A11DB11D3FBFBA2F37
:10038000A92F982F8827BC01CD01620F711D811DF7
:10039000911D42E0660F771F881F991F4A95D1F77C
:1003A00008950F931F93CF93DF93CDB7DEB72997AF
:1003B0000FB6F894DEBF0FBECDBF8091D5019091EE
:1003C000D601892B09F47CC00E94AC010091DB01AD
:1003D0001091DC012091DD013091DE016017710781
:1003E0008207930740F46093DB017093DC018093F4
:1003F000DD019093DE010091DB011091DC01209181
:10040000DD013091DE01601B710B820B930B6C32AE
:10041000714081059105C0F2F8948091D0019091CE
:10042000D1019A838983E091D501F091D601DF0152
:100430001196808189879091CC01E091DF01F09144
:10044000E0018091E101992309F445C09081982B46
:1004500098879081809589238F838F818C8388E012
:100460008B8358856F8149853B812C8189819A8155
:10047000508347FD252F3A952083262F39F0441FBE
:1004800000C000006083000000C0F2CF38E04D9152
:1004900060830000019761F7F093E001E093DF01D2
:1004A00049873B832C839A83898378940E94AC018B
:1004B0006093DB017093DC018093DD019093DE019A
:1004C00029960FB6F894DEBF0FBECDBFDF91CF9156
:1004D0001F910F9108959081982B98879081809516
:1004E00089238F838F818E8388E08D8358856F81E8
:1004F00049853D812E8189819A81508347FD252F31
:1005000000C000C0208300C000C000C000C000C008
:1005100060830000262F3A9541F0441F000000C080
:1005200000C000C000C000C0E8CF38E04D9100C05E
:10053000608300C0019709F7F093E001E093DF01C9
:1005400049873D832E83AFCF8F929F92AF92BF9208
:10055000CF92DF92EF92FF924B015C010E94AC01BF
:100560006B017C010E94AC016C197D098E099F0909
:10057000683E734081059105A8F321E0821A910835
:10058000A108B10888EEC80E83E0D81EE11CF11C5A
:1005900081149104A104B10429F7FF90EF90DF903A
:1005A000CF90BF90AF909F908F900895AF92BF92E1
:1005B000CF92DF92EF92FF920F931F93CF93DF932F
:1005C0006C017B018B01040F151FEB015E01AE185E
:1005D000BF08C017D10759F06991D601ED91FC9180
:1005E0000190F081E02DC6010995892B79F7C501AD
:1005F000DF91CF911F910F91FF90EF90DF90CF90FF
:10060000BF90AF900895FC01538D448D252F30E0AD
:10061000842F90E0821B930B541710F0CF9608950F
:1006200001970895FC01918D828D981761F0A28D3C
:10063000AE0FBF2FB11D5D968C91928D9F5F9F7302
:10064000928F90E008958FEF9FEF0895FC01918DB8
:10065000828D981731F0828DE80FF11D858D90E025
:1006600008958FEF9FEF0895FC01918D228D892FC2
:1006700090E0805C9F4F821B91098F7399270895AA
:1006800083E291E00E94340321E0892B09F420E009
:10069000822F089580E090E0892B29F00E9440038A
:1006A00081110C9400000895FC01A48DA80FB92FAE
:1006B000B11DA35ABF4F2C91848D90E001968F738A
:1006C0009927848FA689B7892C93A089B1898C91A9
:1006D000837080648C93938D848D981306C00288F8
:1006E000F389E02D80818F7D80830895EF92FF92C2
:1006F0000F931F93CF93DF93EC0181E0888F9B8D45
:100700008C8D98131AC0E889F989808185FF15C0FE
:100710009FB7F894EE89FF896083E889F989808121
:100720008370806480839FBF81E090E0DF91CF91F0
:100730001F910F91FF90EF900895F62E0B8D10E012
:100740000F5F1F4F0F731127E02E8C8D8E110CC081
:100750000FB607FCFACFE889F989808185FFF5CFCC
:10076000CE010E945403F1CFEB8DEC0FFD2FF11D54
:10077000E35AFF4FF0829FB7F8940B8FEA89FB8909
:1007800080818062CFCFCF93DF93EC01888D882367
:10079000B9F0AA89BB89E889F9898C9185FD03C0E4
:1007A000808186FD0DC00FB607FCF7CF8C9185FFC9
:1007B000F2CF808185FFEDCFCE010E945403E9CFB7
:1007C000DF91CF9108951F920F920FB60F921124CF
:1007D0002F933F938F939F93AF93BF9380911B0170
:1007E00090911C01A0911D01B0911E0130911A0140
:1007F00023E0230F2D3758F50196A11DB11D20933D
:100800001A0180931B0190931C01A0931D01B093CA
:100810001E0180911F0190912001A0912101B091B2
:1008200022010196A11DB11D80931F01909320010B
:10083000A0932101B0932201BF91AF919F918F911D
:100840003F912F910F900FBE0F901F90189526E8A3
:10085000230F0296A11DB11DD2CF1F920F920FB68A
:100860000F9211242F933F934F935F936F937F9336
:100870008F939F93AF93BF93EF93FF9383E291E0A6
:100880000E945403FF91EF91BF91AF919F918F917F
:100890007F916F915F914F913F912F910F900FBE7C
:1008A0000F901F9018951F920F920FB60F92112460
:1008B0002F938F939F93EF93FF93E0913301F091E8
:1008C00034018081E0913901F0913A0182FD1BC031
:1008D000908180913C018F5F8F7320913D01821741
:1008E00041F0E0913C01F0E0ED5DFE4F958F80938B
:1008F0003C01FF91EF919F918F912F910F900FBE2F
:100900000F901F9018958081F4CF109226011092BD
:10091000250188EE93E0A0E0B0E08093270190935A
:100920002801A0932901B0932A018AE091E09093D5
:1009300024018093230185EC90E090933001809313
:100940002F0184EC90E0909332018093310180EC90
:1009500090E0909334018093330181EC90E0909388
:1009600036018093350182EC90E0909338018093BA
:10097000370186EC90E090933A0180933901109210
:100980003C0110923D0110923E0110923F011092E5
:10099000CD011092D4011092DB011092DC01109273
:1009A000DD011092DE0181E08093DA018093D701AE
:1009B0001092D80192E09093D9018093CC018AE5FE
:1009C00090E09093D1018093D0010E94260A9093E9
:1009D000D6018093D501009709F454C02AE5FC01A3
:1009E00011922A95E9F78EE190E09093CF018093E0
:1009F000CE0186E090E09093D3018093D201809164
:100A0000CD01882339F061E086E00E947B0186E019
:100A10000E94C900ECE2F1E0E491F0E0EE0FFF1F6C
:100A2000E45EFE4F859194919093E0018093DF0105
:100A3000EEE0F1E0E491E093E10180E090E0A8ECE9
:100A4000B0E08093C0019093C101A093C201B09324
:100A5000C30180E098ECA0E0B0E08093C4019093E3
:100A6000C501A093C601B093C70188EC90E0A0E057
:100A7000B0E08093C8019093C901A093CA01B093DC
:100A8000CB0108951092D1011092D0011092CF01A4
:100A90001092CE01AECF789484B5826084BD84B5C7
:100AA000816084BD85B5826085BD85B5816085BD69
:100AB00080916E00816080936E0010928100809121
:100AC00081008260809381008091810081608093A9
:100AD0008100809180008160809380008091B100CE
:100AE00084608093B1008091B00081608093B000F9
:100AF00080917A00846080937A0080917A0082608D
:100B000080937A0080917A00816080937A0080914E
:100B10007A00806880937A001092C1008091D2019F
:100B20009091D30197FD67C061E00E947B018091A5
:100B3000D2010E94C90081E08093CD010E94D101C1
:100B4000E0913301F091340182E08083E0912F0144
:100B5000F09130011082E0913101F091320180E199
:100B6000808310923B01E0913701F091380186E0DB
:100B70008083E0913501F09136018081806180832E
:100B8000E0913501F0913601808188608083E091A9
:100B90003501F0913601808180688083E0913501D4
:100BA000F091360180818F7D80839AE0E92EF12CCF
:100BB00025E0C22ED12C8091180190911901B70126
:100BC0000E940C0AEC01892B29F58090C8019090B5
:100BD000C901A090CA01B090CB018091CE01909143
:100BE000CF01C817D90750F4B501A401CE010E9466
:100BF00011012196F2CF1092CD01A0CF0E94D10118
:100C000064EC79E080E090E00E94A4021092190167
:100C100010921801D0E0C0E0009118011091190164
:100C2000C801B6010E940C0ABC01990F880B990BF0
:100C30000E949B069B01AC0160E070E080E090E4C4
:100C40000E94FF062091CE013091CF01C217D30739
:100C5000B8F40E946306AB01CE01BA010E94F80904
:100C6000FB01E170FF27EE0FFF1FEE0FFF1FE054A7
:100C7000FE4F4081518162817381CE010E9411013A
:100C80002196CE31D10541F60E94D10164EF71E089
:100C900080E090E00E94A4020F5F1F4F10931901A3
:100CA0000093180188CF8091D5019091D6010E94C0
:100CB000C20A8091D2019091D30197FD03C060E0F8
:100CC0000C947B0108950E946A066894B1110C94FB
:100CD000F90608950E94DE0688F09F5798F0B92F14
:100CE0009927B751B0F0E1F0660F771F881F991F61
:100CF0001AF0BA95C9F714C0B13091F00E94F80605
:100D0000B1E008950C94F806672F782F8827B85F14
:100D100039F0B93FCCF3869577956795B395D9F7B8
:100D20003EF490958095709561957F4F8F4F9F4FC2
:100D30000895E89409C097FB3EF4909580957095CE
:100D400061957F4F8F4F9F4F9923A9F0F92F96E917
:100D5000BB279395F695879577956795B795F1118C
:100D6000F8CFFAF4BB0F11F460FF1BC06F5F7F4F29
:100D70008F4F9F4F16C0882311F096E911C077233B
:100D800021F09EE8872F762F05C0662371F096E844
:100D9000862F70E060E02AF09A95660F771F881F13
:100DA000DAF7880F9695879597F9089557FD90582B
:100DB000440F551F59F05F3F71F04795880F97FB1F
:100DC000991F61F09F3F79F08795089512161306D9
:100DD0001406551FF2CF4695F1DF08C01616170608
:100DE0001806991FF1CF869571056105089408953D
:100DF000E894BB2766277727CB0197F90895FA0176
:100E0000EE0FFF1F309621053105A1F16115710527
:100E100061F48038BFE39B0749F1689490388105FD
:100E200061F08038BFEF9B0741F099234AF5FF3FFF
:100E3000E1053105210519F1E8940894E795D901F8
:100E4000AA2329F4AB2FBE2FF85FD0F310C0FF5FA9
:100E500070F4A695E0F7F73950F019F0FF3A38F43E
:100E60009F779F930DD00F9007FC9058089546F000
:100E70000C948F0760E070E080E89FE308954FE7EF
:100E80009F775F934F933F932F930E9403082F9177
:100E90003F914F915F910E947F080C94570729F46E
:100EA00016F00C9489070C94F8060C948F070E9496
:100EB000DE06A8F39638A0F707F80F92E8942BE324
:100EC0003AEA48EB5FE70E9495080F920F920F9263
:100ED0004DB75EB70F920E944B08E8E6F0E00E9423
:100EE00092074F915F91EF91FF91E595EE1FFF1FE4
:100EF00049F0FE57E0684427EE0F441FFA95E1F7EA
:100F00004195550B0E94C5070F9007FE0C94B90739
:100F1000089597F99F6780E870E060E008959FEF7B
:100F200080EC0895DF93CF931F930F93FF92EF927E
:100F3000DF927B018C01689406C0DA2EEF010E94DB
:100F40009208FE01E894A59125913591459155911E
:100F5000A6F3EF010E940409FE019701A801DA94AB
:100F600069F7DF90EF90FF900F911F91CF91DF9184
:100F700008959B01AC0160E070E080E89FE30C9471
:100F800059090C9489070C94CB090E94DE06D8F30A
:100F90009923C9F3940F511DA3F39150504094F03D
:100FA00059F0882332F0660F771F881F9150504008
:100FB000C1F79E3F51052CF7880F911D9695879597
:100FC00097F908955F3FACF0983E9CF0BB2786955B
:100FD00077956795B79508F4B1609395C1F7BB0F06
:100FE00058F711F460FFE8CF6F5F7F4F8F4F9F4F2F
:100FF000E3CF0C94F90616F00C94CB090C948F07F0
:1010000068940C9489070E94DE06A8F39923C1F323
:10101000AEF3DF93CF931F930F93FF92C92FDD277A
:1010200088232AF02197660F771F881FDAF720E0C0
:1010300030E040E85FEB9FE3883920F0803E38F0F5
:1010400021968F770E94ED08E0E9F0E004C00E944D
:10105000ED08EDEBF0E00E9492078B01BE01EC0180
:10106000FB2E6F5771097595771F880B990B0E949E
:101070009B0628E132E741E35FE30E949208AF2D2F
:101080009801AE01FF900F911F91CF91DF910E94C7
:1010900004090C94E709FA01DC01AA0FBB1F9B01AC
:1010A000AC01BF5728F4222733274427507820C0AB
:1010B000B75190F4AB2F0024469537952795011C26
:1010C000A395D2F3002071F0220F331F441FB39574
:1010D000DAF30ED00C94EC0861307105A0E88A07B1
:1010E000B94630F49B01AC016627772788279078B2
:1010F000309621F0208331834283538308950E94E8
:1011000092080C94E7090E94D90938F00E94E0097E
:1011100020F0952311F00C9489070C948F0711246B
:101120000C94F9060E94D60670F3959FC1F3950FB3
:1011300050E0551F629FF001729FBB27F00DB11D5B
:10114000639FAA27F00DB11DAA1F649F6627B00DEB
:10115000A11D661F829F2227B00DA11D621F739FD4
:10116000B00DA11D621F839FA00D611D221F749FE2
:101170003327A00D611D231F849F600D211D822F29
:10118000762F6A2F11249F5750409AF0F1F0882350
:101190004AF0EE0FFF1FBB1F661F771F881F91507D
:1011A0005040A9F79E3F510580F00C9489070C949C
:1011B000F9065F3FE4F3983ED4F3869577956795FB
:1011C000B795F795E7959F5FC1F7FE2B880F911DA7
:1011D0009695879597F908955058BB27AA270E949E
:1011E00004090C94E7090E94D90938F00E94E0092B
:1011F00020F039F49F3F19F426F40C948F070EF475
:10120000E095E7FB0C948907E92F0E94D60658F376
:10121000BA17620773078407950720F079F4A6F5DB
:101220000C94F8060EF4E0950B2EBA2FA02D0B01AE
:10123000B90190010C01CA01A0011124FF27591B1B
:1012400099F0593F50F4503E68F11A16F040A22F21
:10125000232F342F4427585FF3CF46953795279592
:10126000A795F0405395C9F77EF41F16BA0B620B91
:10127000730B840BBAF09150A1F0FF0FBB1F661FD8
:10128000771F881FC2F70EC0BA0F621F731F841F1B
:1012900048F4879577956795B795F7959E3F08F041
:1012A000B0CF9395880F08F09927EE0F9795879503
:1012B00008950E946D090C94E7090E94E00958F016
:1012C0000E94D90940F029F45F3F29F00C94890766
:1012D00051110C94F9060C948F070E94D60668F3FE
:1012E0009923B1F3552391F3951B550BBB27AA27DF
:1012F00062177307840738F09F5F5F4F220F331F19
:10130000441FAA1FA9F335D00E2E3AF0E0E832D0E0
:1013100091505040E695001CCAF72BD0FE2F29D0E3
:10132000660F771F881FBB1F261737074807AB07B5
:10133000B0E809F0BB0B802DBF01FF2793585F4F2A
:101340003AF09E3F510578F00C9489070C94F90609
:101350005F3FE4F3983ED4F3869577956795B7950C
:10136000F7959F5FC9F7880F911D9695879597F917
:101370000895E1E0660F771F881FBB1F6217730790
:101380008407BA0720F0621B730B840BBA0BEE1FA5
:1013900088F7E09508959F3F31F0915020F48795AC
:1013A00077956795B795880F911D9695879597F9CD
:1013B000089500240A9416161706180609060895BB
:1013C00000240A9412161306140605060895092E21
:1013D0000394000C11F4882352F0BB0F40F4BF2B90
:1013E00011F460FF04C06F5F7F4F8F4F9F4F0895D0
:1013F000AA1BBB1B51E107C0AA1FBB1FA617B7073B
:1014000010F0A61BB70B881F991F5A95A9F7809556
:101410009095BC01CD01089597FB072E16F400941A
:1014200007D077FD09D00E94F80907FC05D03EF4EB
:10143000909581959F4F0895709561957F4F089580
:10144000EE0FFF1F0590F491E02D09940F931F9369
:10145000CF93DF938230910510F482E090E0E09129
:10146000E401F091E50130E020E0B0E0A0E0309749
:1014700099F42115310509F44AC0281B390B243091
:101480003105D8F58A819B816115710589F1FB01D0
:1014900093838283FE0111C04081518102811381B7
:1014A00048175907E0F04817590799F4109761F069
:1014B00012960C93129713961C933296CF01DF91DC
:1014C000CF911F910F9108950093E4011093E501CE
:1014D000F4CF2115310551F04217530738F0A90117
:1014E000DB019A01BD01DF01F801C1CFEF01F9CFA6
:1014F0009093E5018093E401CDCFFE01E20FF31F4D
:10150000819391932250310939832883D7CF209139
:10151000E2013091E301232B41F42091020130914B
:1015200003013093E3012093E20120910001309107
:1015300001012115310541F42DB73EB74091040159
:1015400050910501241B350BE091E201F091E3017C
:10155000E217F307A0F42E1B3F0B2817390778F08A
:10156000AC014E5F5F4F2417350748F04E0F5F1FE9
:101570005093E3014093E201819391939FCFF0E078
:10158000E0E09CCFCF93DF930097E9F0FC01329726
:1015900013821282A091E401B091E501ED0130E0E7
:1015A00020E01097A1F420813181820F931F2091B8
:1015B000E2013091E3012817390709F061C0F09387
:1015C000E301E093E201DF91CF910895EA01CE17A4
:1015D000DF07E8F54A815B819E0141155105B1F7AE
:1015E000E901FB83EA8349915991C40FD51FEC1798
:1015F000FD0761F4808191810296840F951FE901B6
:1016000099838883828193819B838A83F0E0E0E0E1
:1016100012968D919C9113970097B9F52D913C915D
:101620001197CD010296820F931F2091E201309114
:10163000E3012817390739F6309751F51092E50183
:101640001092E401B093E301A093E201BCCFD383F5
:10165000C28340815181840F951FC817D90761F457
:101660004E5F5F4F88819981480F591F5183408396
:101670008A819B81938382832115310509F0B0CF44
:10168000F093E501E093E4019ECFFD01DC01C0CFC2
:1016900013821282D7CF10E0CEE9D0E004C0FE0161
:1016A0000E94200A2196CF39D107C9F7F894FFCFBD
:1016B0000000E6018000000000007603D60203036C
:0816C000C303340312032603E7
:00000001FF
